:020000040800F2
:10000000B86200205D020008AF4400088332000897
:10001000AD44000869080008A14F00080000000076
:100020000000000000000000000000009D0100082A
:100030007909000800000000F9010008E5480008FF
:1000400077020008770200087702000877020008AC
:10005000770200087702000877020008770200089C
:10006000770200087702000877020008770200088C
:100070006D08000879080008850800089108000844
:100080009D080008A9080008770200087702000808
:10009000770200087702000877020008770200085C
:1000A000770200087702000877020008770200084C
:1000B00077020008770200087702000891320008F2
:1000C0008532000877020008770200081D47000803
:1000D00029470008014F0008894F0008954F000884
:1000E000770200087702000877020008770200080C
:1000F00077020008770200087702000877020008FC
:1001000077020008D144000877020008770200084F
:10011000894A000877020008AD4900087702000804
:1001200077020008B5080008B9080008770200083F
:1001300077020008000000000000000077020008BD
:1001400077020008770200087702000877020008AB
:1001500077020008C5080008C908000877020008EF
:10016000770200087702000877020008770200088B
:10017000770200087702000800000000000000007D
:100180007702000877020008DFF80CD000F0CEFA02
:10019000004800475D890008B86200202C4B1968B0
:1001A0000868B0E8F04F80F30988BFF36F8F4FF015
:1001B000000080F3118870470000000008480068C4
:1001C000006880F308884FF0000080F3148862B65E
:1001D00061B6BFF34F8FBFF36F8F00DF00BF00BF6B
:1001E00008ED00E0DFF80C00016841F470010160E7
:1001F000704700BF88ED00E0EFF30980BFF36F8F19
:10020000134B1A681EF0100F08BF20ED108A20E96A
:10021000F04F106009B44FF0500080F31188BFF325
:100220004F8FBFF36F8F0BF0A3FD4FF0000080F3F3
:10023000118809BC19680868B0E8F04F1EF0100F6B
:1002400008BFB0EC108A80F30988BFF36F8F704746
:10025000A0000020EFF305807047000006488047AB
:1002600006480047FEE7FEE7FEE7FEE7FEE7FEE79B
:10027000FEE7FEE7FEE7FEE79D490008890100086A
:100280002DE9F05F0546002092469B4688460646CB
:10029000814640241BE0284641464746224600F05E
:1002A0007CF853465A46C01A914110D3114618465D
:1002B000224600F063F82D1A67EB01084F462246EC
:1002C0000120002100F05AF817EB00094E41201ED2
:1002D000A4F10104DFDC484631462A464346BDE826
:1002E000F09F40EA01039B0703D009E008C9121FF1
:1002F00008C0042AFAD203E011F8013B00F8013BE0
:10030000521EF9D27047D2B201E000F8012B491E0B
:10031000FBD270470022F6E710B513460A460446A2
:100320001946FFF7F0FF204610BD00F0004230F004
:1003300000400AD0C10D01F56071C0F3160042EA19
:100340000151C20840071143704700200146704721
:1003500030B50B46014600202022012409E021FA95
:1003600002F59D4205D303FA02F5491B04FA02F592
:100370002844151EA2F10102F1DC30BD202A04DB65
:10038000203A00FA02F1002070479140C2F12003A8
:1003900020FA03F3194390407047202A04DB203AE7
:1003A00021FA02F00021704721FA02F3D040C2F195
:1003B000200291400843194670472DE9FE4F8046C0
:1003C00081EA0300C00F0C46009021F0004123F0A9
:1003D0000045B8EB0200A94105D2404621469046AF
:1003E0001C460B46024623F00040104347D0270D21
:1003F000C7F30A00C3F30A510290401A0190402843
:100400006BDAC3F3130040F4801B0098924620B1CE
:100410000023D2EB030A63EB0B0B01985946C0F1A2
:1004200040025046FFF7AAFF06460D465046594681
:10043000019A00F08DF910EB08006141002487EA71
:10044000115284EAE7731A4340D0009A62B3019ACA
:10045000012A4FEA075215DC001B61EB02014FF045
:10046000004202EA0752CDE90042001C41F580112A
:1004700032462B4600F08DF903B0BDE8F08F4046C0
:100480002146F9E7001B61EB0201001C41F58013D6
:1004900000185B412018A2F5001747EB030140EA62
:1004A000D570B6196D4111E06D084FEA360645EA80
:1004B000C0754FEA0752001B61EB0201001C41F5B9
:1004C000801149084FEA30000019514132462B464D
:1004D00003B0BDE8F04F00F04DB900980122400094
:1004E0000023D0EB020263EBE073009821464FEA51
:1004F000E074B8EB000061EB0401E9E783F000432E
:100500005BE781F0004158E72DE9FE4F81EA0304E3
:1005100004F0004421F0004100944FF0000B23F060
:10052000004350EA01045ED052EA03045BD0C3F3F7
:100530000A54C1F30A552C44A4F2F3340194A0FBED
:100540000254C1F3130141F48011C3F3130343F4C4
:10055000801301FB024400FB034E840A970A44EA1D
:10056000815447EA8357A4FB076802958D0A05FB6F
:1005700007854FEA932C04FB0C542705029D4FEA94
:10058000065847EA1637B5EB08056EEB070C870EE1
:10059000920E47EA811742EA8312A7FB0201B6EBEB
:1005A0000B0164EB00042B0D43EA0C335E1844EBA3
:1005B0001C50DA465146E7FB0201C5F313044FEA2B
:1005C0000B3343EA14534FEA0432019C43EA060317
:1005D000A4F10C040294009CCDE900B400F0D9F819
:1005E00003B0BDE8F08F00200146F9E72DE9F04D9A
:1005F00081EA030404F0004B21F0004514464FF05B
:10060000000A23F0004150EA050220D054EA01021A
:100610001DD0C5F30A570246C5F31303C1F31300F7
:10062000C1F30A5640F4801543F48013A7EB060883
:10063000101BD64608F2FD3873EB050002D308F113
:10064000010801E092185B41B8F1000F03DA0020C5
:100650000146BDE8F08D00204FF480110646844627
:100660000EE0171B73EB050705D3121B63EB0503A5
:1006700006434CEA010C49084FEA300092185B41EE
:1006800050EA0107EDD152EA030012D082EA0400D9
:1006900083EA0501084305D0101BAB4106D20122B5
:1006A000002306E000224FF0004302E06FF0010259
:1006B00053101AEB06004CEB085110EB0A0041EB0B
:1006C0000B01BDE8F04D00F055B8C1F30A52C1F37B
:1006D000130140F2FF3341F480119A4202DA002004
:1006E0000146704740F233439A42A2F2334202DCA1
:1006F0005242FFF752BEFFF741BE000030B5041E64
:1007000071F1000404DB4FF00044404264EB01014E
:10071000141E73F1000405DB1C464FF000435242E7
:1007200063EB0403994208BF904230BD064C074D6D
:1007300006E0E06840F0010394E8070098471034B1
:10074000AC42F6D3FFF724FD94D40008B4D40008DB
:10075000202A06DBCB17203A41FA02F043EAE07385
:1007600006E041FA02F3D040C2F120029140084372
:100770001946704710B5141E73F1000408DA401CC6
:1007800041F1000192185B411A4301D120F00100B0
:1007900010BD2DE9F04D92469B4611B1B1FA81F2A0
:1007A00002E0B0FA80F220329046FFF7E7FD0446FF
:1007B0000F4640EA0A0041EA0B0153465A460843F5
:1007C00013D0114653EA010019D0C8F14002504637
:1007D000FFF7E3FD05460E46504659464246FFF7F1
:1007E000CDFD084305D0012004E020463946BDE890
:1007F000F08D0020054346EAE0762C4337430A9803
:100800006305E40AA0EB08000022FD0A44EA47540D
:100810000A3002D500200146E9E7010510196941B7
:10082000DDE9084500196941BDE8F04DA2E730B5A2
:100830008C1810F8012B12F00F0301D110F8013BB6
:10084000120906D110F8012B03E010F8015B01F842
:10085000015B5B1EF9D101E001F8013B521EFBD1A7
:10086000A142E6D3002030BDFEE70000014800F0C1
:10087000E5B800003C130020014800F0DFB800009C
:10088000FC100020014800F0D9B80000DC12002064
:10089000014800F0D3B800009C100020014800F08F
:1008A000CDB800007C120020014800F0C7B800005D
:1008B0001C12002070470000014800F0BFB8000083
:1008C0005C11002070470000014800F0B7B800003C
:1008D000BC11002001681823CAB2103AB2FBF3F22F
:1008E000054B6FF30901032A9B5CC36500D9091D01
:1008F0008165084670470000CED0000810B501465B
:1009000000208B698A6A4FF0C07453B1B3F5005F61
:1009100015D072B1012A0CD0022A0AD0032A09D1BB
:1009200004E01AB1012A06D0022A03D1C96AC9011A
:1009300000D5012010BDC96AA142FAD010BD002A1D
:10094000F7D0012AF2D0022AF3D0032AF3D010BD47
:1009500030B50468256825F4802525600468636047
:100960008368402B036803D099600068C26030BD83
:100970009A600068C16030BD704772B6FEE72DE92D
:10098000F0410446876D00F0E7FA064694F835001A
:100990000025022806D08020606584F834500120AC
:1009A000BDE8F0812068016821F01601016020682F
:1009B000416921F080014161206C08B9A06C20B12F
:1009C0002068016821F0080101602068016821F0B9
:1009D000010101600CE000F0BFFA801B052807D977
:1009E00020206065032084F8350084F83450D7E770
:1009F00020680068C007EED194F85C103F20884062
:100A0000B860012084F8350084F834500020C7E72E
:100A100090F83510022903D08021416501207047EC
:100A2000052180F835100068016821F0010101609E
:100A30000020704790F83500704700002DE9F8431A
:100A400004464FF00009CDF8009063484FF416516A
:100A5000A56D0068B0FBF1F72E6894F85C100820D3
:100A600000FA01F131420FD021680A6852070BD514
:100A70000A6822F004020A6094F85C108840A860BA
:100A8000606D40F00100606594F85C104FF0010863
:100A900008FA01F0304208D021684969090604D5F6
:100AA000A860606D40F00200606594F85C1004205E
:100AB0008840304208D021680968890704D5A860B9
:100AC000606D40F00400606594F85C101020884070
:100AD000304218D021680968090714D5A860206839
:100AE0000168490304D50068000308D5A16C07E03C
:100AF0000168C90503D4016821F008010160216C77
:100B000009B12046884794F85C1020208840304284
:100B100031D021680968C9062DD5A86094F8350040
:100B200005282068016806D0490347D500680003FE
:100B30001DD4616C1CE021F0160101602068416940
:100B400021F080014161206C08B9A06C20B12068BF
:100B5000016821F00801016094F85C103F20884092
:100B6000A86084F8358084F83490216D1FE0E16B33
:100B700009B120468847606D00282BD0606DC00702
:100B800014D0052084F835002068016821F00101A7
:100B900001600098401C0090B84203D820680068AB
:100BA000C007F6D184F8358084F83490E16C0029D0
:100BB00010D001B02046BDE8F04308470168C905E0
:100BC000D5D4016821F01001016084F8358084F8E3
:100BD0003490CCE7BDE8F8839C0000202DE9F0417B
:100BE000044600F0B9F906465CB1022084F83500ED
:100BF000002584F834502068016821F0010101606B
:100C00000DE00120BDE8F08100F0A6F9801B052869
:100C100005D920206065032084F83500F2E72068BC
:100C20000068C007F0D12268116820480140D4E96B
:100C300001031843D4E90336334318436369184367
:100C4000A3691843E3691843236A18430843616A98
:100C5000042903D1D4E90B13194308431060206819
:100C60004069666A20F0070130460E4301270428D8
:100C70000CD1A06A0643E06A40B12046FFF73EFE71
:100C800020B14020606584F83570BAE7206846617D
:100C90002046FFF71FFE94F85C203F2191408160C1
:100CA000656584F835700020ACE700003F8010F0E7
:100CB0002DE9F0410446866D90F8340000250128A6
:100CC0000DD0012084F8340094F835700020012FF5
:100CD00007D084F8340002252846BDE8F0810220C0
:100CE000FBE7022784F8357060652046FFF730FE89
:100CF00094F85C103F208840B0602068016841F0A3
:100D000016010160206C20B12068016841F00801E3
:100D100001602068016841F001010160DCE700002A
:100D200070B5044600F018F90546601C02D004486E
:100D30000078044400F010F9401BA042FAD370BDC3
:100D4000900000202DE9F84FDFF8BCA1002201251A
:100D500003264FF00F090AF1040BAAF1040E00BF9D
:100D60000B6805FA02F42340A34270D10F7907F013
:100D70000307012F01D0022F16D187684FEA4208DE
:100D800006FA08FC27EA0C07D1F80CC00CFA08FC9C
:100D90004CEA070CC0F808C04768A7430C79C4F3B5
:100DA000001494403C4344600C79E443A4070AD007
:100DB000C4684FEA420C06FA0CF7BC438F6807FA86
:100DC0000CF72743C7600C7904F00304022C12D1FE
:100DD000D40800EB840CDCF820405707FF0E09FA1A
:100DE00007F824EA0804D1F8108008FA07F848EA5E
:100DF0000408CCF8208004684FEA420C06FA0CF78D
:100E0000BC430F7907F0030707FA0CF72743076085
:100E10004C6814F4403F70D03C4C276847F480473E
:100E20002760246822F0030704F480440094384CBF
:100E300007EB040CDCF8084897074FEA177809FA23
:100E400008F7BC43334FB84202D1002724E054E0F6
:100E5000314FB84201D101271EE0304FB84201D1D5
:100E6000022719E02E4FB84201D1032714E02D4F7D
:100E7000B84201D104270FE02B4FB84201D105271A
:100E80000AE02A4FB84201D1062705E0284FB842B0
:100E900001D1072700E0082707FA08F72743CCF815
:100EA0000878DAF800405746D1F804C09C435FEA5E
:100EB000CC2C00D51C433C60DBF800405F46D1F8E9
:100EC00004C09C435FEA8C2C00D51C433C60DEF8D8
:100ED00000407746D1F804C09C435FEA8C3C00D5C3
:100EE0001C433C60084F083F3C68D1F804C09C4359
:100EF0005FEACC3C00D51C433C60521C102AFFF436
:100F00002FAFBDE8F88F0000083C01404438024094
:100F1000003001400000024000040240000802408E
:100F2000000C024000100240001402400018024071
:100F3000001C02400069084000D00120704742694F
:100F400021EA02030A4043EA0241816170470AB183
:100F5000816170470904FBE7014880687047000021
:100F600090000020704770472DE9F0410168044669
:100F70004A694E6890F83E000025D743FA0506D42A
:100F8000F243D20503D46FF4807201254A61B9059A
:100F900008D4F143C90505D422686FF4007145F007
:100FA00002055161790525D4F143C90522D4638D29
:100FB00094F83D10226B202808D13BB9212910D08C
:100FC00029290ED0282901D1212A0AD022686FF4BC
:100FD0008061516145F00405102806D0402804D0F6
:100FE00008E0204602F024FE04E02068016841F495
:100FF00000710160380508D4F043C00505D42168AC
:101000006FF4006045F008054861002D07D0206CA2
:10101000284320642046BDE8F04102F0A5B9BDE8B0
:10102000F0812DE9F047026800215368C66A90F804
:101030003E4090F83D50102C12D0402C10D0046C43
:10104000002C7DD05469E443A6077AD4DE43B6056C
:1010500077D4036C03B19169BDE8F04702F0C4BDD9
:10106000976951694FF42A0CC9435FEAC1784FF080
:101070002A4904D066452AD04E4528D010E0DE43E8
:10108000B6050DD4C16A614501D1012103E0C16AF1
:10109000494501D10821C162BDE8F04702F038BCE2
:1010A0000E0716D4DE43B60513D4416CC9B21161E4
:1010B000416B09B1C96B29B9816B002907D0C96B94
:1010C000002904D00068416841F400614160BDE836
:1010D000F0878E0706D4DE43B60503D4BDE8F0479B
:1010E00002F08ABBFE43526876074FEA02521DD4D3
:1010F000002AECDB0A0608D4DA43520505D4490776
:1011000005D5BDE8F04702F01BBB4907DFD4D94342
:101110008905DCD4212D05D0402CD8D1BDE8F0477D
:1011200002F03CBCBDE8F04702F0C8BA002ACEDBB2
:101130004A060BD4DA43520508D4490708D501E022
:101140000DE00EE0BDE8F04702F03EBA4907BED41C
:10115000D9438905BBD4BDE8F04702F0C8B991690D
:1011600070E7E10606D4D943890503D4BDE8F0470A
:1011700002F0A6BD2821212D27D0292D25D06506D6
:1011800055D4DD436D0552D4640752D590F83D30F7
:10119000448D002C9BD01269446A2270426A521C12
:1011A0004262428D521E4285428D002A8FD12A2BE7
:1011B0008DD10268536823F4806353602222026356
:1011C00080F83D1000F0F0FA81E7250623D4DD43D6
:1011D0006D0520D4640720D590F83D30448D002C57
:1011E000F2D0446A24781461426A521C4262428DF1
:1011F000521E4285428D002AE6D1292BE4D1026895
:10120000536823F4806353602122026380F83D1009
:1012100000F0CBFA5BE76107D6D4D9438905D3D474
:10122000418D0029D0D0416A097811610AE0610737
:10123000CAD4D9438905C7D4418D0029C4D01169C6
:10124000426A1170416A491C4162418D491E4185C3
:101250003DE7704770B5040025D094F83D000025A7
:1012600020B984F83C50204600F058FA242084F835
:101270003D002068016821F00101016020680168DB
:1012800041F4004101602068016821F400410160DF
:1012900000F046FC4D4A6168914201D84C4900E09B
:1012A0004C49884201D2012070BD4B492368B0FBF4
:1012B000F1F15E6826F03F060E435E60636893427C
:1012C00006D94FF4967359434FF47A73B1FBF3F197
:1012D0002368491C1E6A26F03F0631431962616883
:1012E000914210D84900401EB0FBF1F2521CC2F3EB
:1012F0000B02042A01D2042022E0B0FBF1F0401CD2
:10130000C0F30B001CE0A268F2B301EBC10303EBD6
:101310000116431EB3FBF6F35B1C43F480431B052D
:1013200049D092B301EBC10202EB0111401EB0FBA8
:10133000F1F0401CC0F30B0040F4804040F400404A
:101340002168CA694CF6FF739A431043C861D4E917
:10135000071001432068026822F0C00211430160B7
:10136000D4E9030101432068826848F2FF339A43BD
:1013700011438160D4E9050108432168CA6822F05D
:10138000FF021043C86001E00EE016E0206801682B
:1013900041F0010101602564202084F83D002563AF
:1013A00084F83E50002070BD01EB4106431EB3FBA4
:1013B000F6F35B1CB3E70120C2E701EB4101401EDD
:1013C000B0FBF1F0401CC0F30B00B7E7A0860100B2
:1013D00080841E0000093D0040420F0070477047A6
:1013E00070477047704700002DE9FF4F83B09A4661
:1013F000DDE9118793460446DDF84090FFF7ACFD28
:10140000054694F83D00202870D119230122744923
:101410002046009502F02EFD0028F5D194F83C00FE
:10142000012863D0012084F83C0020680168C907C6
:1014300003D1016841F0010101602068016821F4D5
:1014400000610160222084F83D00402084F83E00C5
:1014500000262664C4F82490A4F82A80608D208594
:101460006048E062CDE9007553465A46204604992B
:1014700002F0E8FA002879D1208DD0B1012821D0DE
:101480000228206824D0416980690090208D0328BB
:1014900066D801282BD0544902283B464FF0000261
:1014A000009557D08846204602F0E4FC00285DD124
:1014B0003AE02068416981690091016841F4007156
:1014C00001607DE02068016821F480610160F0E73F
:1014D000016821F4806101602068016841F40061C5
:1014E0000160206841698069009069E075E02A46E2
:1014F0003946204602F064FD88BB54E0206801684C
:1015000041F40071016020680069616A0870606AD6
:10151000401C6062218D491E2185618D491E6185B7
:1015200021680969017042E02068016821F4806146
:10153000016020680069616A0870606A401C60622E
:10154000208D401E2085608D401E60853B46002218
:1015500041460095204602F08DFC00B9CEE705E03B
:101560002A463946204602F02BFD18B1012007B06B
:10157000BDE8F08F20680069616A0870606A401CED
:101580006062208D401E81B22185608D401E608585
:1015900020684269D243520712D4032903D101685B
:1015A00021F48061016020680069616A0870606AE6
:1015B000401C6062208D401E2085608D401E60852D
:1015C000208D00287FF462AF202084F83D0084F84D
:1015D0003E6084F83C600020C9E70220C7E70000B5
:1015E000020010000000FFFF040001002DE9FF4F82
:1015F00083B09A46DDE9119793460446DDF84080B2
:10160000FFF7AAFC054694F83D0020287FD1192356
:10161000012240492046009502F02CFC002876D19A
:1016200094F83C00012872D0012084F83C00206826
:101630000168C90703D1016841F001010160206818
:10164000016821F400610160212084F83D00402000
:1016500084F83E0000262664C4F82480A4F82A906A
:10166000608D20852C48E062CDE9007553465A46CE
:101670002046049902F064FA70B930E02A463946EF
:10168000204602F0D5FC58B1206C042804D1206813
:10169000016841F400710160012007B0BDE8F08FDE
:1016A000606A216800780861606A401C6062218D70
:1016B000491E89B22185628D521E62852268536956
:1016C000DB435B070BD469B100781061606A401C92
:1016D0006062208D401E2085608D401E6085208DBB
:1016E0000028CBD12A463946204602F097FB002835
:1016F000CAD154F83D0B016841F40071016020200B
:1017000004F81E09E67766770020C6E7FFE70220A7
:10171000C3E70000020010000000FFFF10B586B014
:10172000044614216846FEF7F5FD1C4920688842EE
:1017300031D11B480021026842F0020202600068B9
:1017400000F0020005904FF4407000901220CDE9A7
:101750000101032003900420049069461148FFF71B
:10176000F1FA0F481030016841F40011016000687F
:10177000002200F40010059005211F2000F0E4F87D
:101780001F2000F0D3F800220521202000F0DCF813
:10179000202000F0CBF806B010BD0000005400403F
:1017A00030380240000402407047704770B50400B2
:1017B00013D021684CF6CC400860216845F25550A2
:1017C0000860D4E9000141602168A0688860FFF7E3
:1017D000C3FB054641F601060DE0012070BD00BFC8
:1017E000FFF7BAFB401BB04205D92068C0688007EC
:1017F00001D0032070BD2068C0688007F0D1216847
:101800004AF6AA200860002070BD00684AF6AA21A6
:10181000016000207047000002488168027811448E
:1018200081607047900000200B4810B5016841F4BA
:1018300000710160016841F480610160016841F458
:1018400080710160032000F09FF80F2000F006F87F
:1018500000F050F8002010BD003C024030B50546B5
:101860001F4887B00024016841F010010160006842
:1018700006A900F01000009001A800F031F90498CA
:10188000A8B100F04DF940001649174AB0FBF1F13C
:101890001648491E026040F2E732C0E90324C0E95D
:1018A0000114846100F0E1FF040003D015E000F0B2
:1018B00037F9E9E70D4801F039F804000DD1362079
:1018C00000F034F8102D07D200222946362000F00F
:1018D0003BF80748056000E0012407B0204630BD12
:1018E0004038024040420F00001000409C1300208E
:1018F000940000200C4882B0016841F480410160EE
:10190000006800F4804000900748001F016841F023
:10191000805101600068002200F0805000900F218B
:10192000901E02B000F010B844380240002809DBD5
:1019300000F01F02012191404009800000F1E020E9
:10194000C0F8001170470000F0B40E4B1B680C4645
:10195000C3F30223C3F10705042D00D90425191D83
:10196000072901D2002300E0DB1E012606FA05F15B
:10197000491E214099409E40761E16403143F0BCDE
:1019800003F02CBB0CED00E0064900F007020868EC
:101990004FF6FF03184040EA0220034A1043086054
:1019A000704700000CED00E00000FA052DE9F0475B
:1019B0000E46050065D0DFF81481D8F80000F7B2B4
:1019C00000F00700B04207D288F80070D8F8000095
:1019D00000F00700B04254D128683D4C810712D571
:1019E000400703D5206840F4E050206028780007C5
:1019F00003D5206840F4604020602068A96820F08A
:101A0000F000084320602878C0072DD0304968686E
:101A10000839012812D0022813D0032811D00968F0
:101A2000890700292DDA216821F003010143216093
:101A3000FFF792FA814641F2883A0EE0096889037D
:101A4000EFE709688901ECE7FFF786FAA0EB0901E7
:101A5000514502D90320BDE8F0872068696800F08D
:101A60000C00B0EB810FEFD1D8F80010404601F028
:101A70000701B14207D90770006800F00700B042C3
:101A800001D00120E7E72878400705D52068E968FC
:101A900020F4E050084320602878000706D520682D
:101AA000296920F4604040EAC100206000F058F845
:101AB0002168084AC1F30311515CC8400649086017
:101AC00006480068FFF7CAFE0020C4E7003C024059
:101AD00008380240D6D000089C0000209400002066
:101AE0000F2202600C4A136803F00303436013687B
:101AF00003F0F0038360136803F4E053C3601268DB
:101B00004FF4E05303EAD20202610448006800F097
:101B1000070008607047000008380240003C02409F
:101B20000448054900680968044AC1F38221515CF0
:101B3000C84070479C00002008380240E6D00008EA
:101B40000448054900680968044AC1F34231515C00
:101B5000C84070479C00002008380240E6D00008CA
:101B6000154810B5006810F00C02144813D041104D
:101B7000042A0FD0082A0ED10F4C241F2268236894
:101B800002F03F025B0207D52068C0F38810A0FB7B
:101B9000010106E0084610BD2168C1F38811A1FBD0
:101BA00000010023FEF76CFB2168C1F30141491CD1
:101BB0004900B0FBF1F010BD083802400024F400E9
:101BC0002DE9F84F04006ED02078DFF84C93C00761
:101BD000A9F104054AD009F104000168C1F38101AB
:101BE000012908D00068C0F3810002280AD1D9F881
:101BF0000000400206D52868800337D560680028B9
:101C0000E1D033E06068B0F5803F10D0B0F5A02F90
:101C1000286810D020F480302860286820F48020C4
:101C200028606068A8B1FFF797F906460DE02868BC
:101C300040F48030F4E740F480202860F7E700BFEC
:101C4000FFF78AF9801B642873D828688003F7D5CA
:101C50000CE0FFF781F9064605E000BFFFF77CF9CD
:101C6000801B6428F0D828688003F7D42078DFF838
:101C7000AC8280074FF0000A3ED5A748001D0168DE
:101C800011F00C0F08D00068C0F3810002280BD1BE
:101C9000D9F80000400207D42868800716D5E0680C
:101CA000012800D112E033E1E068B8B10120C8F8A2
:101CB0000000FFF751F9064605E000BFFFF74CF9B9
:101CC000801B0228C0D828688007F7D528682169BA
:101CD00020F0F80040EAC10028600DE0C8F800A03C
:101CE000FFF73AF9064604E0FFF736F9801B0228B1
:101CF0001FD828688007F7D42078000722D5864FA0
:101D000087486169703771B101210160FFF724F9DB
:101D1000064604E0FFF720F9801B022809D838683E
:101D20008007F7D50EE0C0F800A0FFF715F90646CA
:101D300005E082E0FFF710F9801B02287DD83868A3
:101D40008007F7D42078400768D5DFF8CCB10027AA
:101D50000BF13C0BDBF80000C0000BD4DBF80010EB
:101D600041F08051CBF80010DBF80000012700F0B3
:101D7000805000906B4E3068C00510D4306840F43D
:101D800080703060FFF7E8F8009005E0FFF7E4F8B6
:101D90000099401A022850D83068C005F6D55E4E2A
:101DA000A0686C3601280FD00528306810D020F0CC
:101DB00001003060306820F004003060A068B8B1E5
:101DC000FFF7CAF800900FE0306840F00100F4E738
:101DD00040F004003060F7E7FFF7BEF80099411AC1
:101DE00041F28830814266D830688007F4D50EE031
:101DF000FFF7B2F8009007E0FFF7AEF80099411A3C
:101E000041F28830814256D830688007F4D42FB12F
:101E1000DBF8001021F08051CBF80010A069C8B3A6
:101E20003D49091D0968C1F3810102294AD00228F0
:101E3000504607D0C8F8600000E03CE0FFF78CF89F
:101E400004463BE04746C8F86000FFF785F80646C1
:101E500005E000BFFFF780F8801B02282BD8286818
:101E60008001F7D4D4E907010843A16A2E4A490842
:101E700002EB0141626A41EA8211084394F82C1096
:101E800040EA0161C9F8001001203866FFF764F8E4
:101E9000044606E03EE000BFFFF75EF8001B0228A4
:101EA00009D828688001F7D534E000BFFFF754F85F
:101EB000001B022802D90320BDE8F88F28688001A2
:101EC000F4D427E00128F7D0D9F80000E26900F443
:101ED000800191421CD1226A00F03F01914217D14A
:101EE00047F6C071626A0140B1EB821F10D1A26A4D
:101EF0004FF0FF3300F4403103EB5202B1EB024FDD
:101F000006D194F82C1000F07060B0EB016F01D096
:101F10000120D1E70020CFE704380240000047420B
:101F2000800E4742007000400000FFFF704770477E
:101F300070B50446B0F8500000250104206802F096
:101F4000E5FA18B1A16B0143A16304E00021206808
:101F500002F0BAFA0546C5F3432070BDF8B5056B2B
:101F600004460068416B09041BD5290719D5D4E93B
:101F70000A56002E14D00027206802F0AFFA05F8A8
:101F8000010B010A05F8011B010C05F8021B000EEC
:101F9000361F7F1C05F8010C082FEDD3C4E90A5643
:101FA000F8BD416B4FF00006C9054FF0010744D55D
:101FB000390281632068C16B4CF23A329143C163AC
:101FC0002068C16A21F00101C16228071DD515F002
:101FD000220F09D0206802F0B3FA28B1A16B0143A7
:101FE000A1632046FFF7A3FF216840F23A508863BF
:101FF00084F834702663A80703D0204600F0B2F8B6
:10200000F8BD204600F0AFF8F8BD2806FCD5A806BC
:1020100009D5206802F094FA28B1A16B0143A163AD
:102020002046FFF784FFA807EED12068C16A21F09F
:102030000801C16284F83470E3E7416B490424D598
:10204000290722D5D4E90856002EDDD05FF000071D
:1020500015F8010B009015F8011B361F40EA01200E
:10206000009015F8021B40EA0140009015F8011C91
:1020700040EA016000906946206802F042FA7F1C45
:10208000082FE5D3C4E90856F8BD416B40F23A2267
:102090001142F9D0416B890703D5A16B41F00201D0
:1020A000A163416B090703D5A16B41F00801A1634E
:1020B000416B890603D5A16B41F02001A163416BFF
:1020C000C90603D5A16B41F01001A163416B8905DD
:1020D00003D5A16B41F00801A16340F23A7181631D
:1020E0002068C16B40F23A329143C163206802F02C
:1020F00027FAA16B0843A063280706D584F834703B
:1021000026632046FFF713FFF8BD2806FCD515F01F
:10211000300F0CD0E16B11480865E06BFEF778FCDE
:102120000028F1D0E06BBDE8F84002F0D5BAA8076E
:102130000CD0216C0A480865206CFEF769FC002869
:10214000E2D0206CBDE8F84002F0A4BAA66384F89F
:10215000347026632046FFF7E9FEF8BDD946000833
:1021600095460008704770477047000038B5016811
:1021700004464A688868C043430606D5C30704D1AD
:10218000D3435B0601D4216C05E0830708D4D34315
:102190001B0605D4616C01B02046BDE830400847FD
:1021A000830603D5430601D5C30551D4D3439B060B
:1021B0004ED443060AD494F85130032B49D0636DB2
:1021C00043F004036365CB688B680093830609D4EE
:1021D000636D43F0010363658B6800930B6823F024
:1021E00040030B60C00506D4606D40F008006065D8
:1021F000206880680090606D002829D020684168C0
:1022000021F0E0014160012084F85100900701D4E1
:10221000D00722D02068416821F003014160114DB0
:10222000E06C40B10565E06CFEF7F2FB18B1606D43
:1022300040F040006065A06C002809D00565A06CE6
:10224000FEF7E6FB002803D0606D40F040006065BB
:1022500038BDC8688868009038BD2046FFF784FF05
:1022600038BD00003547000870B5040009D0606A29
:10227000002540B125616561A56294F8510040B127
:102280000CE0012070BD6068B0F5827FF4D0E5619C
:10229000F2E784F85050204600F044F8022084F819
:1022A00051002068016821F040010160A088218967
:1022B00000F4827001F404410843A18901F4006133
:1022C0000843217C01F002010843217D01F0010156
:1022D0000843218B01F400710843217F01F038018C
:1022E000084394F8201001F080010843218D01F487
:1022F0000051084321680860A069042101EA1040E8
:1023000094F8241001F01001084321684860206807
:10231000C16921F40061C1616565012084F8510043
:10232000002070BD70B586B0044614216846FDF7E4
:10233000F1FF1F492068884238D11E4800240168F7
:1023400041F480510160006800F480500590194804
:102350001438016841F001010160006801AA00F031
:1023600001000590102000900120032582E8310033
:10237000114E69463046FEF7E5FC01221021304639
:10238000FEF7E5FDE020009001A9022081E8310080
:102390000520049069463046FEF7D4FC0022052152
:1023A0002320FFF7D1FA2320FFF7C0FA06B070BD53
:1023B0000030014044380240000002402DE9F84F4F
:1023C000044690F851001D4616460F46012838D1A4
:1023D000002F77D0002E75D060684FF00408B0F55C
:1023E000827F01D1A06810B3FEF7B6FD824694F853
:1023F0005000012825D04FF0010984F8509084F84E
:1024000051804FF00008C4F85480A763A687E68780
:10241000C4F83080A4F83480A4F83680C4F8408032
:10242000C4F84480A068B0F5004F0CD015E084F8E3
:102430005180009313460A46204600F01CF9BDE87F
:10244000F88F0220FBE72068016821F0400101605D
:102450002068016821F48041016020680168490614
:1024600003D4016841F040010160E068C0B134E08C
:1024700020688168C90709D0007BA16B0870A06B38
:10248000401CA063E08F401EE08709E0FEF764FD7A
:10249000A0EB0A00A84202D3681C01D032E085B349
:1024A000E08F0028E4D11BE020688168C9070AD0CA
:1024B000C068A16B0880A06B801CA063E08F401EE9
:1024C000E0870AE01BE0FEF747FDA0EB0A00A84208
:1024D00002D3681C01D015E09DB1E08F0028E3D144
:1024E00052462946204602F02DF908B120206065A9
:1024F00084F8519084F85080606D00289FD00120AE
:102500009DE7FFE784F8519084F85080032096E718
:102510002DE9F84F984616468A460446FEF71CFDFC
:10252000814694F8510001281ED1BAF1000F73D0F2
:10253000002E71D094F85000012815D0012784F89E
:102540005070032084F8510000256565C4F830A060
:10255000A686E686A563A587E58765642564A068E9
:10256000B0F5004F03D00CE00220BDE8F88F2068E2
:10257000016821F0400101602068016841F4804158
:10258000016020680168490603D4016841F04001F8
:102590000160E068B0F5006F606803D048B3012EB9
:1025A00027D047E008B1012E1FD1206B2168008899
:1025B000C86006E020688168890709D5216B098811
:1025C000C160206B801C2063E08E401EE0860CE022
:1025D000FEF7C2FCA0EB0901414503D3B8F1FF3F70
:1025E00003D035E0B8F1000F32D0E08E0028E1D101
:1025F00023E0206B21680078087306E0206881687A
:1026000089070AD5216B09780173206B401C206370
:10261000E08E401EE0860DE02BE0FEF79DFCA0EB77
:102620000901414503D3B8F1FF3F03D010E0B8F1F1
:10263000000F0DD0E08E0028E0D14A4641462046EA
:1026400002F0AEF808B120206065A06830B109E062
:1026500084F8517084F85050032086E72068C168E0
:102660008068009084F8517004F8505F606800281A
:10267000F3D0012079E72DE9FF4F81B01D46934645
:1026800004464FF001090E9EFEF766FC074694F8DB
:1026900051006168012806D0B1F5827F3CD1A16864
:1026A000C9BB042838D10298002871D0BBF1000FB3
:1026B000FBD0002DF9D094F8500001282CD04FF019
:1026C000010A84F850A094F85100042802D0052093
:1026D00084F851004FF00008C4F85480C4F838B0B2
:1026E000E587A58702992163E586A586C4F8408021
:1026F000C4F8448020680168490603D4016841F0A9
:1027000040010160E068B0F5006F606808D0F0B388
:10271000012D49D081E0FFE7022005B0BDE8F08F30
:1027200008B1012D39D1206B21680088C860206B69
:10273000801C2063E08E401EE0862EE020688168C9
:1027400089070FD5E18E69B1B9F1010F0AD1216B6B
:102750000988C160206B801C2063E08E401EE086EB
:102760004FF0000920688168C9070CD0E18F51B192
:10277000C068A16B0880A06B801CA063E08F401E26
:10278000E0874FF00109FEF7E7FBC01B01E00BE01B
:1027900067E0B04201D3701C50D1E08E0028CDD14B
:1027A000E08F0028CAD13EE0206B216800780873D2
:1027B000206B401C2063E08E401EE0862DE02068E8
:1027C000816889070FD5E18E69B1B9F1010F0AD18E
:1027D000216B09780173206B401C2063E08E401E42
:1027E000E0864FF0000920688168C9070CD0E18FAE
:1027F00051B1C068A16B0870A06B401CA063E08F52
:10280000401EE0874FF00109FEF7A6FBC01BB04257
:1028100002D3701C01D011E086B1E08E0028CED129
:10282000E08F0028CBD13A463146204601F0B8FF70
:1028300050B12020606584F8508012E084F851A0E7
:1028400084F85080032068E7A06818B92068C16840
:102850008068009084F851A084F85080606D002852
:10286000F1D0012059E77047704710B5040003D03C
:1028700094F83D0010B107E0012010BD002084F85D
:102880003C00204600F01EF8022084F83D00211D87
:10289000206802F091F8012084F8460084F83E0098
:1028A00084F83F0084F8400084F8410084F8420036
:1028B00084F8430084F8440084F8450084F83D001F
:1028C000002010BD08B501681448814201D11448A8
:1028D00010E01348001FB1F1804F0BD0114A914214
:1028E00010D1016841F002010160006800F00200AF
:1028F000009008BD016841F001010160006800F02E
:102900000100F5E7084A9142F3D1016841F0040162
:102910000160006800F00400EAE7000000000140E8
:1029200044380240000400400008004090F83D1088
:10293000012901D001207047022180F83D10016873
:10294000CA6842F00102CA6000681149884214D086
:10295000B0F1804F11D00F4988420ED00E49884205
:102960000BD00E49884208D00D49884205D00D4948
:10297000884202D00C49884204D1816801F00701E5
:10298000062903D0016841F0010101600020704771
:10299000000001400004004000080040000C00401E
:1029A00000040140004001400018004070472DE93C
:1029B000F04104460068C66805694FF00007A907A2
:1029C00013D5B10711D5F91E0161012020772068C8
:1029D00080698007204602D0FFF7E8FF04E000F09E
:1029E0007EF8204600F07CF82777680716D5700738
:1029F00014D521686FF00400086102202077206858
:102A0000806910F4407F204602D0FFF7CFFF04E03A
:102A100000F065F8204600F063F82777280715D501
:102A2000300713D521686FF0080008610420207773
:102A30002068C0698007204602D0FFF7B7FF04E096
:102A400000F04DF8204600F04BF82777E80616D541
:102A5000F00614D521686FF0100008610820207777
:102A60002068C06910F4407F204602D0FFF79EFF27
:102A700004E000F034F8204600F032F82777E80749
:102A800008D0F00706D021686FF0010008612046E9
:102A900000F028F8280608D5300606D521686FF022
:102AA000800008612046FFF7DEFE680608D5700644
:102AB00006D521686FF040000861204600F01CF840
:102AC000A8060AD5B00608D521686FF02000086175
:102AD0002046BDE8F041FFF7C7BEBDE8F081704772
:102AE0007047000000680349884201D1FEF794BE98
:102AF00070470000001000407047704710B5044652
:102B00000068406994F84110C0F3C010212911D128
:102B100080B12068143050E8001F21F0800140E8A7
:102B20000012002AF5D1A06B08B1FDF728FF20465E
:102B300002F067F82068406994F84210C0F38010F2
:102B4000222911D180B12068143050E8001F21F0F3
:102B5000400140E80012002AF5D1E06B08B1FDF712
:102B60000EFF204602F026F8002010BD704700003E
:102B7000F8B5016804460868CA684B6910F00F0F81
:102B80004FF000055AD003F0010602F49077374366
:102B900065D0C10705D0D10503D5616C41F00101B5
:102BA0006164410705D5D90703D0616C41F002018A
:102BB0006164810705D5D90703D0616C41F0040138
:102BC0006164010707D502F02001314303D0616C35
:102BD00041F008016164616C00293BD0800604D596
:102BE000900602D5204602F01AF820684069616C10
:102BF000C0F3801001F00801014320462BD001F002
:102C0000D9FF20684069400621D52068143050E87B
:102C1000001F21F0400140E80012002AF5D1E06BCE
:102C2000A8B172490165E06BFDF7F2FE002811D0F2
:102C3000E06B016D01B0BDE8F040084783060ED59A
:102C400093060CD52046BDE8F84001F0E8BF2046C9
:102C5000FFF78CFFF8BDFFF789FF6564F8BD266BB1
:102C60002023012E7ED1C6067CD5D6067AD50868EB
:102C70004868009048694FF0020640064DD5E26B67
:102C8000106840684FF480770004000C3AD0A18DA2
:102C9000814237D9E085D069B8422DD020680C3008
:102CA00050E8001F21F4807140E80012002AF5D19D
:102CB0002068143050E8001F21F0010140E80012A4
:102CC000002AF5D12068143050E8001F21F040019F
:102CD00040E80012002AF5D184F8423025632068CC
:102CE0000C3050E8001F21F0100140E80012002ACB
:102CF000F5D1E06BFDF743FE6663A08DE18D401AD0
:102D000081B206E0A18D8142A8D1D069B842A5D197
:102D100066632046FFF7F1FEF8BDA08DE18D401AF5
:102D200081B2E08D0028F7D00029F5D020680C3062
:102D300050E8002F22F4907240E80027002FF5D1D0
:102D40002068143050E8002F22F0010240E80027EC
:102D5000002FF5D184F84230256320680C3050E80C
:102D6000002F00E006E022F0100240E80023002BD4
:102D7000F3D1CDE705062BD5150629D594F84100EA
:102D80002128C9D1A068B0F5805F01D12069B0B118
:102D9000206A411C2162216800784860E08C401E56
:102DA0000004000CE084B7D12068C16821F08001E4
:102DB000C1602068C16841F04001C160F8BD206A6F
:102DC0000088C0F308004860206A801C2062E5E7A4
:102DD0004006F3D55006F1D5CA68204622F04002DD
:102DE000CA6084F8413000F04BFAF8BDB94A0008D7
:102DF00070B5040004D094F84100002510B106E03D
:102E0000012070BD84F84050204600F023F82420B3
:102E100084F841002068C16821F40051C160204657
:102E200001F05EFF2068016921F490410161206892
:102E3000416921F02A0141612068C16841F40051D3
:102E4000C1606564202084F8410084F84200656315
:102E5000002070BD2DE9F04F87B00546142168466B
:102E6000FDF758FACB48DFF8288310380222D5F84E
:102E700000C0C84B0321DFF820B3002497060615D5
:102E80004FF04009C44553D1D3F800C04CF4002C96
:102E9000C3F800C01B6803F400230593036843F0E4
:102EA00001030360006800F0010005908DE8160042
:102EB0000820CDE9031069465846FDF743FFDFF8C7
:102EC000E0A2B6495046B846C0E90346CAF81440E5
:102ED000CAF81840CAF81C40CAF820408AE8020321
:102EE000CAF82440FDF77AFE08B1FDF746FDAC4F65
:102EF000AA48C5F838A060373038CAF8385038606A
:102F0000C7E90184C7E903467C61BC61FC613C629E
:102F100038467C62FDF762FE08B1FDF72EFDEF63D7
:102F2000002205213420BD63FEF70EFD34205FE052
:102F3000DFF870824FF0070AC4455ED1954B1B1D28
:102F4000D3F800C04CF0100CC3F800C01B6803F0AD
:102F500010030593036843F0010303600068CDE9A3
:102F6000024100F0010005904FF4C060CDE900027D
:102F7000CDF810A069465846FDF7E4FEDFF820A220
:102F800089490AF1C00A5046CAF80010C0E9017424
:102F9000C0E90346CAF81440CAF81840CAF81C40F1
:102FA000CAF82040B846CAF82440FDF717FE08B119
:102FB000FDF7E3FC7D4FC5F83CA0CAF83850C7E9DF
:102FC00003467C61BC617848FC613C6278307C627D
:102FD00087E801033846FDF701FE08B1FDF7CDFC97
:102FE000AF63002205212520BD63FEF7ADFC25203F
:102FF000FEF79CFC07B0BDE8F08FDFF8B481C44554
:1030000064D1D3F800C04CF4003CC3F800C01B6886
:1030100003F400330593036843F001030360006881
:10302000884600F0010005900420009001AA0220CB
:1030300082E8110569465846FDF784FE0820009095
:103040000220019002AA012082E801056946584643
:10305000FDF778FEDFF85481504908F160083031FF
:1030600088E882024046B146C0E90346C8F81440E9
:10307000C8F81840C8F81C40C8F82040C8F82440D8
:10308000FDF7ACFD08B1FDF778FC484E4348C5F8A4
:103090003880C0361830C8F838503060C6E901743E
:1030A000C6E903497461B461F46134623046746204
:1030B000FDF794FD08B1FDF760FCEE6300220521E9
:1030C0002620B563FEF740FC262091E7DFF8E48078
:1030D000C4458FD1D3F800C0A0464CF4802CC3F86F
:1030E00000C01B6803F480230593036843F00203C8
:1030F00003600068CDE9024100F0020005904FF442
:103100004060CDE90002CDF810A069462A48FDF7DD
:1031100019FEDFF8A8A0214950461839C0E9034636
:10312000CAF81440CAF81840CAF81C40CAF820402F
:103130008AE88202CAF82440FDF750FD08B1FDF785
:103140001CFC1E4C1548C5F838A060344838CAF835
:103150003850C4E90007C4F80880C4E90386C4F8FD
:103160001480C4F81880C4F81C80C4F8208020465D
:10317000C4F82480FDF732FD08B1FDF7FEFBEC63D7
:10318000002205212720A563FEF7DEFB27202FE77D
:10319000004C004040380240000002407060024095
:1031A0009C1000200010014040640240BC1100202F
:1031B000004400400048004000040240DC120020AF
:1031C00090F84230202B01D00220704721B11AB173
:1031D0000023036301F00ABE012070477047704767
:1031E0002DE9F843044690F84100984616460D46EE
:1031F000202802D00220BDE8F88385B17EB10020EE
:103200006064212084F84100FDF7A6FEA684814673
:10321000E684A0682027B0F5805F02D003E001209B
:10322000E9E7206910B12E4600250EE000260CE0EB
:103230008021204601F02AFEA8B9C6B116F8010B7C
:1032400021684860E08C401EE084E08C4B464FF0E3
:103250000002CDF800800028EAD14FF0400120465E
:1032600001F014FE40B184F841700320C3E735F843
:10327000020BC0F30800E3E784F841700020BAE7CE
:103280007047FEE70148FDF76FBE0000E808002028
:103290000148FDF7C6BE0000E808002038B5806B85
:1032A000002190F83D202B4B46F2A8141B68B3FB7D
:1032B000F4F3C3EBC30303EB830300933BB15B1E47
:1032C000009303681B689B0505D5009BF6E7036C1C
:1032D00043F020030364436B03B1D963836B03B1F1
:1032E000D96303681C6824F480641C604185436BC7
:1032F00003B11965836B03B1196503681C6824F079
:1033000001041C6090F83D402023602C0BD0282441
:1033100034EA02020FD080F83D3080F83E1000BF42
:10332000FDF797FF38BD80F83D3080F83E1001640E
:10333000FDF718FE38BD0268136843F001031360FF
:103340000268136843F480631360016380F83D40B2
:10335000E6E700009C00002000684169C9430906B7
:1033600001D400210161704770B5044690F83D001A
:1033700094F83E10102901D0402906D1222804D10A
:1033800021680A6822F400620A60282131EA0002FA
:103390004FF000054FF0200626D021684968090546
:1033A00005D4602803D084F83D6084F83E5025633E
:1033B00020684168090537D5416821F40061416002
:1033C000606B90F835203C49012A11D00165606B93
:1033D000FDF71EFB38B32068016821F00101016090
:1033E00084F83D60606B1CE0256384F83D10DFE7E6
:1033F000A06B0165A06BFDF70BFBA0B120684169D4
:10340000C943490605D40069616A0870606A401CB6
:1034100060622068016821F00101016084F83D606C
:10342000A06B016D884710E094F83D10602910D022
:103430004169C943490605D40069616A0870606A38
:10344000401C60622046FDF704FF206CC1071CD1C0
:1034500015E084F83D6025644169C943490605D4F7
:103460000069616A0870606A401C606220680168D7
:1034700021F0010101602046FDF774FDE5E78107B9
:1034800003D4410701D4000704D52068416821F422
:10349000E061416094F83D00216C49070BD5282874
:1034A00009D10648E062256384F83D6084F83E5007
:1034B0002046FDF793FF70BD9D3200080000FFFF1E
:1034C00001684A69D24352050FD46FF480624A61A1
:1034D000002140F8301F202242738173026942F0BC
:1034E000040202610173012070470020704710B58B
:1034F000C26A438D0168042B06D0438D032B08D08C
:10350000438D022B1DD012E04A6822F480624A608B
:103510000CE04B6823F480634B60042A06D0022A37
:1035200004D001680A6822F480620A6001680969AF
:10353000426A1170416A491C4162418D491E4185B0
:1035400010BD012A34D0102A32D0042A34D0022AE5
:1035500032D00B6843F400730B6001680969436A59
:103560001970416A491C4162438D5B1E43850368A3
:103570001B690B70416A491C4162418D491E41859E
:1035800001684B6823F440734B60202180F83D10A4
:1035900090F83E300021402B80F83E1010D0082AD1
:1035A00002D0202A00D012210163FDF718FF10BDC0
:1035B0000B6823F48063CFE70B6843F48063CBE7A9
:1035C0000163FDF70EFF10BD38B590F83D102229BC
:1035D00010D1C36A418D03290DD901680969426A76
:1035E0001170416A491C4162418D491E4185418DDE
:1035F000032906D038BDC26A022A02D0012906D0AA
:1036000029B10068416821F48061416038BD2A4ACF
:1036100046F2A81400211268B2FBF4F202EB820217
:10362000009202682024009D6D1E009526D015682A
:10363000AD05F8D4156825F48065156002685568F5
:1036400025F4E065556002681269456A2A70426A8D
:10365000521C4262428D521E428580F83D4090F8D5
:103660003E2080F83E10402A21D0082B02D0202B8B
:1036700000D012210163FDF7B2FE38BD036C43F0A8
:1036800020030364536823F4E06353600268126903
:10369000436A1A70426A521C4262428D521E42852F
:1036A00080F83D4080F83E10FDF7D3FD38BD016342
:1036B000FDF797FE38BD00009C00002010B5C26ADF
:1036C00090F83D1021290BD1418D51B1416A02681A
:1036D00009781161416A491C4162418D491E418549
:1036E00010BD20230021082A13D0202A11D012F562
:1036F000803F0ED00268546824F4E06454601122C4
:10370000026380F83E1080F83D3000BFFDF768FE90
:1037100010BD0268546824F4E064546002681468C0
:1037200044F400741460016380F83D3090F83E204A
:1037300080F83E10402AE9D1FDF754FE10BD00008C
:1037400010B590F83D1090F83E30C26A048DB4B1C7
:10375000212903D0402B11D122290FD1418DE1B372
:1037600090F83E10402942D0416A02680978116100
:10377000416A491C4162418D491E418510BD212984
:10378000E8D120230021082A13D0202A11D012F5D5
:10379000803F0ED00268546824F4E0645460112223
:1037A000026380F83E1080F83D3000BFFDF718FE40
:1037B00010BD0268546824F4E06454600268146820
:1037C00044F400741460016380F83D3090F83E20AA
:1037D00080F83E10402AE9D100E002E0FDF702FE49
:1037E00010BD0068416821F48061416010BDBDE8F2
:1037F000104000F0D3B8000078B590F83E50C26A8F
:10380000036B90F83D6000240168222E7AD1066D8A
:103810000EB9402D76D0056D1DB90569B5F5404F3F
:1038200009D0458D05B3468D384D012E0ED0438D00
:10383000022B3AD05DE04A698A6900920A6842F434
:1038400080720A60016D491C016578BDAA4213D1DE
:103850000A6822F480620A6001684A68120503D58A
:103860000A6822F4806216E04A698A6900920A684E
:1038700042F400720A6039E0082A10D0202A0ED0E3
:10388000122B0AD0042A03D0022A01D0102AE7D131
:103890000A6842F480620A6024E0012AE0D00A68E3
:1038A00022F480620A600168DEE7042A21D0022A3D
:1038B0001FD0102A1DD00B6823F480630B600168B1
:1038C0000B6843F400630B6001684B681B0509D566
:1038D000AA4212D0012A10D0082A0ED0102A0CD0E9
:1038E000202A0AD001684A6989690091046578BD77
:1038F00008E00B6843F48063E5E74A6842F48052CD
:103900004A60EFE7486988690090F0E70000FFFF30
:1039100090F83E10402910D00169B1F5804F19D0C0
:10392000016DA9B3016D012910D1416C5FF0F10265
:1039300001F4407142EAD11106E0016D0029416CA9
:1039400005D0C9B241F0010100680161704701F082
:10395000FE01F9E790F83D102129416C09D0C9B268
:1039600041F0010102681161416B29B1C96B49B98C
:1039700002E001F0FE01F5E7816B0029E6D0C96B9A
:103980000029E3D00068416841F40061416070475C
:10399000FFE7416CF02201F44071CBE710B590F8DD
:1039A0003D10026D4AB1026D012A14D0026D022A47
:1039B00016D0BDE81040FFF7CFBCC16C0129816C67
:1039C00002D0C1F3072108E00268C9B21161016D9C
:1039D000891C016510BD816CC9B20268116123E0C8
:1039E00022291CD0428D0AB1212920D0428D002AE3
:1039F000F0D12129EED101684A6822F4E0624A60E0
:103A000001680A6842F400720A6000210163202202
:103A100080F83D2080F83E10FDF7E4FC10BD016801
:103A20000A6842F480720A60016D491CD1E7416A5C
:103A3000026809781161416A491C4162418D491E41
:103A4000418510BD2DE9F84F0446006889460B9D5D
:103A500001689846174641F480610160206801685A
:103A600041F48071016000954FF0011B002259461E
:103A700020460A9B00F0FEF94FF4007A40B120681E
:103A80000068C00501D5C4F840A00320BDE8F88F48
:103A9000216809F0FE0008612B46284920460A9A51
:103AA00000F030FAF0BB20684169806900902A4636
:103AB00020460A9900F0BCFA40B1206C04283AD1A3
:103AC0002068016841F40071016034E0FEB2B8F191
:103AD000010F09D02168380A08612A4620460A9950
:103AE00000F0A6FA0028E8D1206806612A462046A0
:103AF0000A9900F09DFA0028DFD12068016841F49E
:103B00008071016000950022594620460A9B00F012
:103B1000B1F90028B3D1216809F0FF0040F001009D
:103B2000086100E007E02B46044920460A9A00F0AD
:103B3000E9F90028AAD00120A8E70000020001004E
:103B40002DE9F843044600680D46DDE90897016851
:103B50009846164641F4807101604B4600224FF0B2
:103B600001112046009700F085F948B120680068EF
:103B7000C00502D54FF4007020640320BDE8F8832F
:103B8000216805F0FE0008613B464A46154920467B
:103B900000F0B8F988B920684169806900903A4618
:103BA0004946204600F044FA48B1206C042804D16C
:103BB0002068016841F4007101600120DEE7F5B280
:103BC000B8F1010F09D02168300A08613A46494628
:103BD000204600F02DFA0028E7D12068056100207A
:103BE000CCE700000200010038B50C4690F83D20FB
:103BF00000212825954302680B4605D0516991693B
:103C0000009180F83C3038BD556825F480655560DA
:103C1000E243540700D50121120601D5828900E054
:103C2000028B80F83C3092B2FDF79DF938BD000060
:103C30002DE9F04190F83D300446C26A002120266B
:103C40001E4F00686FF48065082A01D0202A01D138
:103C5000282B04D0212B17D04561BDE8F081E76205
:103C6000426822F4E0624260206845612068026890
:103C700022F480620260216384F83D6084F83E1083
:103C80002046FDF7ABFBE8E7E7622122226384F8D8
:103C90003D6084F83E10416821F4E0614160206895
:103CA00045612068016821F4806101602046FFF7CA
:103CB00053FB2046FDF779FDCFE700000000FFFF32
:103CC000F8B590F83D6004460068416821F4E06171
:103CD00041602068002541690091016841F00101BF
:103CE00001602068016821F48061016020684168FA
:103CF000090520D5474F222E48D02A2E46D0616B89
:103D0000096849686185618D19B1216C41F0040130
:103D10002164416821F400614160606BFCF78AFE18
:103D2000012808D0606B0765606BFCF771FE10B16D
:103D3000606B016D8847608D08B320684169C94395
:103D4000490708D40069616A0870606A401C6062B3
:103D5000608D401E608520684169C943490608D4CA
:103D60000069616A0870606A401C6062608D401E74
:103D70006085608D18B1206C40F004002064206CD8
:103D800000B32046BDE8F840FFF7EEBAA16B096822
:103D900049686185618D19B1216C41F0040121648C
:103DA000416821F400614160A06BFCF743FE0128EB
:103DB000C1D0A06B0765A06BFCF72AFE0028BAD023
:103DC000A06BB6E72A2E06D12563282084F83D0093
:103DD0002046FDF7E9FC94F83D10202028290DD05D
:103DE000216B222901D0222E07D1256384F83D00C2
:103DF00084F83E502046FDF7D7FCF8BD0649E16245
:103E0000256384F83D0084F83E502046FDF7E6FA2D
:103E1000F8BD00009D3200080000FFFF70B5164697
:103E20000D4604461EE02046FFF74AFB08B101207C
:103E300070BD681C16D0FDF78FF8801BA84200D813
:103E400085B920684069C04340070BD5002044F87D
:103E5000300F20216173A073216941F0200121619D
:103E60002073E4E720684069C0434007DBD40020AA
:103E700070BD00002DE9F047984617460D460446F0
:103E8000C1F30746DDF820902AE000BFB8F1FF3FFC
:103E900026D0FDF761F8A0EB0901414502D8B8F141
:103EA000000F1DD12068012E16D0806925EA000080
:103EB0000004000C12D00020B84211D1002044F8B8
:103EC000300F20216173A073216941F0200121612D
:103ED00020730120BDE8F0874069E7E70120EBE7A8
:103EE0002068012E0AD0806925EA00000004000C39
:103EF00006D00020B842C9D00020EBE74069F3E7C4
:103F00000120F7E72DE9F047984616460D4604468E
:103F10004FF000094FF0200AC1F3074723E0206863
:103F20004069C043400515D42068016841F4007120
:103F3000016021686FF480604861C4F8309084F8B3
:103F40003DA084F83E90216C41F00401216484F886
:103F50003C9021E0701C06D0FCF7FEFFA0EB0800AF
:103F6000B04203D816B1012F1FD021E02068012FE5
:103F700015D0806925EA00000004000C18D000BFAD
:103F800044F8309F84F80DA084F80E90216941F028
:103F90002001216184F80C900120BDE8F087406980
:103FA00025EA00000004000CEAD12068406901E025
:103FB0002068806925EA00000004000CAFD1ECE71E
:103FC0002DE9F041002590460E460446202728E0C2
:103FD0004069C043C0060CD454F8301B6FF0100089
:103FE000486144F810596777A577206A20622577E1
:103FF00014E0FCF7B1FFA0EB0800B04200D886B98E
:1040000020684069C04340060BD544F8305F6773B1
:10401000A573206940F02000206125730120BDE8D0
:10402000F08120684169C9434906D1D40020F6E7F0
:1040300070B516460D4604461EE02046FFF740FACE
:1040400008B1012070BD681C16D0FCF785FF801BED
:10405000A84200D885B920684069C04300060BD546
:10406000002044F8300F20216173A073216941F0D2
:10407000200121612073E4E720684069C043000605
:10408000DBD4002070BD0000314808B5016841F460
:1040900080010160016801F480010091016841F430
:1040A000001101600068002200F40010009005215A
:1040B0000C20FDF749FC0C20FDF738FC00220521FF
:1040C0000D20FDF741FC0D20FDF730FC00220521FD
:1040D0000E20FDF739FC0E20FDF728FC00220521FB
:1040E0000F20FDF731FC0F20FDF720FC00220521F9
:1040F0001020FDF729FC1020FDF718FC00220521F7
:104100001120FDF721FC1120FDF710FC00220521F4
:104110003920FDF719FC3920FDF708FC00220521A4
:104120003A20FDF711FC3A20FDF700FC00220521A2
:104130004520FDF709FC4520FDF7F8FB002205218D
:104140004620FDF701FCBDE808404620FDF7EEBB28
:104150003038024010B504F0C7FC04F0B5FC002272
:104160004FF48171042006F07FF8124C00220821E0
:104170002061102006F078F80F49104A08600021ED
:104180000F4806F0F3F90D4A2060243200210D4853
:1041900006F0ECF9094A6060483200210A4806F04E
:1041A000E5F9064AA0606C320021084806F0DEF905
:1041B000E06010BD3400002084000020C0CD000865
:1041C000C948000859B700080DB40008B97B0008B9
:1041D0002DE9F04387B014216846FCF79BF8494865
:1041E0000024016841F004010160016801F004014C
:1041F0000591016841F080010160016801F08001D2
:104200000591016841F001010160016801F00101BF
:104210000591016841F002010160016801F00201AD
:104220000591016841F0080101600068012500F076
:104230000800059003200090CDE90154DFF8C88004
:10424000694640460394FCF77DFD0022012140466B
:10425000FCF77DFE012202214046FCF778FE042097
:104260008DE8310069464046FCF76CFD4FF4704024
:10427000CDE90004DFF8949002946946484603941F
:10428000FCF760FD4020CDE90004029469464046F9
:104290000394FCF757FDEE030096CDE901541C4F43
:1042A000694638460394FCF74DFD002231463846F6
:1042B000FCF74DFE4FF4E0560096CDE901546946F7
:1042C00040460394FCF73EFD002231464046FCF791
:1042D0003EFE80200090CDE9015469464846039493
:1042E000FCF730FD012280214846FCF730FE7820A3
:1042F0008DE8310069464846FCF724FD07B0BDE86B
:10430000F083000030380240000802400004024000
:10431000000002400D4810B50B4901600C49416096
:1043200000214FF480428160C0E903124161816144
:10433000C1610162FCF78EFF002803D0BDE8104088
:10434000FCF71BBB10BD000000540040E808002033
:10435000A0860100094810B50749016004214160A9
:104360004FF4FA618160FDF721FA002803D0BDE81F
:104370001040FCF702BB10BD003000403C0900209B
:10438000104810B50E4901604FF482714160002160
:1043900081600122C160C0E90412520282613822A8
:1043A000C0E9072141628162FDF75EFF08B1FCF7B9
:1043B000E4FA0122BDE8104010210348FCF7C7BD14
:1043C00000300140CC090020000002400C4810B52C
:1043D0000A4901604FF4E1314160002181600C2203
:1043E000C160C0E904128161C161FEF701FD0028CE
:1043F00003D0BDE81040FCF7C0BA10BD004C00402F
:104400007C0F00200C4810B50A4901604FF4E131DF
:104410004160002181600C22C160C0E90412816109
:10442000C161FEF7E5FC002803D0BDE81040FCF7B1
:10443000A4BA10BD00100140C40F00200C4810B5F4
:104440000A4901604FF4E1314160002181600C2292
:10445000C160C0E904128161C161FEF7C9FC002896
:1044600003D0BDE81040FCF788BA10BD00440040FE
:104470000C1000200C4810B50A4901604FF4E131DE
:104480004160002181600C22C160C0E90412816199
:10449000C161FEF7ADFC002803D0BDE81040FCF779
:1044A0006CBA10BD0048004054100020FEE7FEE743
:1044B000014890ED020A704700000020014880ED9D
:1044C000010A70470000002008444069704700005E
:1044D0000148FDF743BD000048090020D0F88000E6
:1044E00070470A688260D1E901231A43D1E9033198
:1044F0000B43C1681A436FF30B011143C1600020E5
:1045000070470968C0F880100020704710B585B06A
:1045100004460D20CDE900104020029000200390B9
:104520004FF48060049069462046FFF7DAFF41F2BD
:1045300088320D21204600F01DF805B010BD0000A6
:1045400010B585B0044600210C20CDE900104020B4
:10455000CDE902010001049069462046FFF7C1FF42
:10456000034A0C21204600F005F805B010BD0000FC
:1045700000E1F505454B10B51B684FF4FA54B3FB49
:10458000F4F353435B1E02D24FF0004010BD426B68
:1045900012F0450FF6D01205F4D4426B520703D542
:1045A00004218163084610BD426BD20702D001216D
:1045B000816305E0C52282630269D2B28A4201D0DA
:1045C000012010BD0021FFF77FFF3149084201D1D2
:1045D000002010BD002802DA4FF0007010BD41002D
:1045E00001D5402010BD810001D5802010BDC10043
:1045F00002D54FF4807010BD010102D54FF4007058
:1046000010BD410102D54FF4806010BDC10102D53B
:104610004FF4006010BD010202D54FF4805010BD70
:10462000410202D54FF4005010BD810202D54FF473
:10463000804010BDC10202D54FF4004010BD4103BF
:1046400002D54FF4003010BD810302D54FF4802015
:1046500010BDC10302D54FF4002010BD010402D5E6
:104660004FF4801010BD410402D54FF4001010BD6E
:10467000810402D54FF4800010BD000702D54FF42D
:10468000000010BD4FF4803010BD00009C000020E1
:1046900008E0FFFD10B5846B40F23A502168886352
:1046A0002046FDF745FC012184F8341000212163E8
:1046B000062801D0052805D12068FFF741FFA16B2E
:1046C0000843A063A06B0028204602D0FDF72FFC12
:1046D00010BDFDF72BFC10BD10B5846B40F23A50B5
:1046E000216888632046FDF723FC012184F83410FB
:1046F00000212163062801D0052805D12068FFF795
:104700001FFFA16B0843A063A06B0028204602D0C6
:10471000FDF70DFC10BDFDF709FC10BD0148FDF7CC
:1047200025BD0000CC0900200148FDF71FBD000099
:10473000240A002010B5806B0021C187C186FDF7D7
:1047400013FD10BDF8B5044640684FF482739842DB
:1047500021D1A0684FF48065B0F5004F01D0A84288
:104760000AD12068066826F0400606606068984214
:1047700011D1A068A8420ED000920B4600228021E1
:10478000204600F043F8002804D0606D40F020007F
:1047900060650320F8BD00920B4600220121EFE77F
:1047A000F8B515460E460B4600920446012202213A
:1047B00000F02CF8A0B9134813490068B0FBF1F0E1
:1047C0004FF47A71484300906068B0F5827F0DD154
:1047D0003346002280212046009500F017F870B182
:1047E000606D40F0200060650320F8BD009830B196
:1047F000401E009020688068C0430006F6D5002067
:10480000F8BD00009C00002000366E012DE9F84341
:104810001E46914688460446089DFCF79DFB401BBA
:10482000351AFCF799FB074626480068C0F3CB30E1
:1048300068430AE0701C09D0FCF78EFBC01BA8423D
:104840000FD275B10098B8B3401E009020688168FF
:1048500038EA010033D000214945EBD10020BDE802
:10486000F8832068416821F0E00141606068B0F59C
:10487000827F0BD1A068B0F5004F02D0B0F5806FF9
:1048800004D12068016821F040010160A06AB0F500
:10489000005F09D12068016821F40051016020689F
:1048A000016841F400510160012084F851000020AA
:1048B00084F850000320D2E7FFE70025C6E7012176
:1048C000CAE700009C0000204FF4FA740448FCF78B
:1048D0009CFF04F03DF8204605F052FCF6E700008E
:1048E0003C09002010B54FF0E020006908F06EF898
:1048F000012803D0BDE8104007F08ABB10BD0000BE
:1049000030B593B030216846FBF704FD14210CA8A4
:10491000FBF700FD1F480025016841F08051016050
:10492000006800F0805011901B48016841F48041FC
:1049300001600068022400F480401190092000907A
:104940004FF4803001900120CDE9050480050790E7
:1049500004200890A820CDE9090407200B906846A0
:10496000FDF72EF908B172B6FEE70CA90F2081E819
:1049700031004FF4A0500F904FF48050109005215B
:104980000CA8FDF713F8002801D072B6FEE713B0AB
:1049900030BD00004038024000700040024801680D
:1049A00041F470010160704788ED00E00148FDF7B7
:1049B000FEBF00009C130020F0B50268274B284D75
:1049C000284E294F294C4FF0804C984209D0604521
:1049D00007D0A84205D0B04203D0B84201D0A042CF
:1049E00004D122F0700E4A6842EA0E0298421BD0AF
:1049F000604519D0A84217D0B04215D0B84213D0A4
:104A0000A04211D01A4DA8420ED01A4DA8420BD088
:104A1000194DA84208D0194DA84205D0184DA842FA
:104A200002D0184DA84203D122F44075CA682A4327
:104A30004D6922F080022A438D68C5620D68856247
:104A4000984201D0A04201D109690163016841F097
:104A500004010160012141610260F0BD00000140DC
:104A60000004004000080040000C00400004014029
:104A7000004001400044014000480140001800404F
:104A8000001C004000200040094808B5006801688B
:104A9000C943C90607D4016840680090054800680A
:104AA00008B105F039FDBDE808400148FEF760B8DF
:104AB0007C0F00205000002010B5806B0021C185C4
:104AC000FEF754F810BD70B5846B2068406994F807
:104AD0004110C0F3C0100025212904D118B1E5848C
:104AE000204600F08EF82068406994F84210C0F328
:104AF0008010222904D118B1E585204600F05AF82B
:104B0000606C40F0100060642046FEF72FF870BD26
:104B100010B50146806B096809684FF00002C905AD
:104B20002ED4C28501680C3151E8003F23F4807314
:104B300041E80034002CF5D10168143151E8003F00
:104B400023F0010341E80034002CF5D10168143151
:104B500051E8003F23F0400341E80034002CF5D138
:104B6000202180F84210016B012909D101680C3124
:104B700051E8003F23F0100341E80034002CF5D148
:104B80004263016B012902D0FEF728FB10BD818D25
:104B9000FDF7B3FF10BD10B5806B01214163016BC0
:104BA000012902D0FEF71BFB10BD818D4908FDF7DE
:104BB000A4FF10BD01680C3151E8002F22F490725F
:104BC00041E80023002BF5D10168143151E8002F92
:104BD00022F0010241E80023002BF5D1016B0129ED
:104BE00009D101680C3151E8002F22F0100241E890
:104BF0000023002BF5D1202180F842100021016311
:104C0000704701680C3151E8002F22F0C00241E8E2
:104C10000023002BF5D1202180F84110704708B502
:104C200090F84210222901D0022008BD82684FF47A
:104C300080539A4201D1016921B1816A9A421BD005
:104C40004AB10AE00268816A5268C2F308020A8027
:104C5000816A891C08E0026972B10268526802F038
:104C60007F020A70816A491C8162C18D491E090454
:104C7000090CC18503D01BE002685268F1E70168A6
:104C8000CA6822F02002CA600168CA6822F48072F1
:104C9000CA6001684A6922F001024A61202180F855
:104CA000421000214163026B012A03D0FEF796FAFD
:104CB000002008BD016301680C3151E8002F22F08B
:104CC000100241E80023002BF5D101680A68D206E2
:104CD00002D50A6849680091818DFDF70EFFE7E76C
:104CE00070B5044600680169E26821F4405111433F
:104CF00001612169A068E2690843616911430843C1
:104D00002168CA6849F20C639A430243CA6020686A
:104D10004169A26921F44071114341613149206820
:104D2000884202D03049884202D1FCF709FF01E0F5
:104D3000FCF7F6FEE2690023192164253226B2F55C
:104D4000004F626828D0A0FB0101930F9200FBF78F
:104D500097FA0146B0FBF5F06FF01802504301EBF3
:104D6000800006EB0010B0FBF5F000F0F002B1FBA4
:104D7000F5F002EB0012B1FBF5F06FF018035843A9
:104D800001EB800006EB0010B0FBF5F000F00F0027
:104D900021681044886070BDA0FB010192185B413E
:104DA000FBF76EFA0146B0FBF5F00201B1FBF5F03E
:104DB0006FF01803584301EB800006EBC000B0FB16
:104DC000F5F000F0F80002EB4002B1FBF5F05843BB
:104DD00001EB800006EBC000B0FBF5F000F007002F
:104DE000D6E70000001001400014014038B5816290
:104DF00004468285002013466064222284F8422003
:104E0000E56B1F4AEA63E56B1E4A2A64E56B1E4A9E
:104E1000EA64E26B10650A462168E06B091DFBF746
:104E200047FF30B110206064202084F84200012048
:104E300038BD2068016840680090206948B120684A
:104E40000C3050E8001F41F4807140E80012002A45
:104E5000F5D12068143050E8001F41F0010140E80E
:104E60000012002AF5D12068143050E8001F41F0EC
:104E7000400140E80012002AF5D1002038BD0000B2
:104E8000114B0008974B0008C74A00082DE9F8436A
:104E9000984617460D460446089E24E0701C22D012
:104EA000FCF75AF8A0EB0800B0421AD8CEB120683F
:104EB000C168490717D5802D15D0402D13D0016842
:104EC000C94309070FD401680025406800902046B7
:104ED000FFF770FE0820606484F840500120BDE8B0
:104EE000F8830320FBE72068006835EA000004D05F
:104EF0000020B842D2D00020F1E70120F9E70000FD
:104F000030B51D48C3B000680168C943C9062DD437
:104F100001680025406842901748FDF7EFFD1748EB
:104F2000006840684195C0F580600404240C0AD0F4
:104F3000B4F5807F07D8224611496846FBF7D1F9BE
:104F4000ADF8004101E0ADF800510E48006838B1FD
:104F5000BDF8001121B1002341AA694607F00CFAFF
:104F60004FF4806206490448FEF72AF943B002482C
:104F7000BDE83040FDF7FCBDC40F00205C110020EF
:104F80007C0A0020440000200148FDF7F1BD00002C
:104F90000C1000200148FDF7EBBD0000541000206C
:104FA000FEE700000FB4054B10B503A9044A0298B0
:104FB00000F0E6F810BC5DF814FB0000E185000885
:104FC0002001002020F00040C0F1FF40C00F7047DA
:104FD00020F00040C0F1FF40C00F70470907090EE4
:104FE000002804DB00F1E02080F80014704700F096
:104FF0000F0000F1E02080F8141D704702E008C89F
:10500000121F08C1002AFAD170477047002001E042
:1050100001C1121F002AFBD1704700002DE9FF5F7C
:10502000DDE90220010DDDF838B0024318D044F666
:105030001050A1F2FF3141430D140F98012820D0E8
:10504000A5EB0B00401C5FEA000A4FF00004474E3E
:10505000DFF81C91A046504616D5CAF1000728E09B
:105060000F98012443A2012808D0002100980F9B2B
:10507000C0E90021C0E90243BDE8FF9F6FEA0B01D0
:10508000F4E7CBF10000DEE7074612E0F80707D0AF
:105090002246334640464946FBF736FA8046894663
:1050A0002246334610461946FBF72EFA04460E46B2
:1050B0007F10002FEAD1DDE90201BAF1000F42466C
:1050C0004B4602DAFBF720FA01E0FBF78FFA0446C1
:1050D0000E460022284BFBF711FB03D84FF0FF30A0
:1050E000014607E00022254B20463146FBF765F9D3
:1050F000FBF7EBFA102409E0002C0ADB0A2200235C
:10510000FBF7BEF8019B30321A55641E50EA0102CB
:10511000F2D1641C019AC4F1110314440F9A012ABC
:1051200003D0012208430DD10AE0084304D0002037
:105130004FF0110B0F9080E7A3EB0B056D1E0DE0F8
:105140005B4504DD4FF0000205F1010504E003DAE0
:105150004FF00002A5F10105002AECD000980F994C
:10516000C0E90231C0E9004586E7000000002440A4
:105170000000F03F300000000000F0430000E03F7E
:105180002DE9FF4F95B09B468946064600250FE264
:10519000252877D100242746F84A0121059400E00C
:1051A000044316F8013F203B01FA03F01042F7D107
:1051B00030782A2811D06FF02F033078A0F1300218
:1051C000092A16D8059A44F0020402EB820203EB86
:1051D00042021044761C0590EFE759F8042B059223
:1051E000002A03DA504244F40054059044F00204CB
:1051F000761C30782E2816D116F8010F44F00404DE
:105200002A280DD06FF02F023078A0F13003092B3F
:1052100009D807EB870302EB4303C718761CF3E7B3
:1052200059F8047B761C30786C280FD006DC4C28AB
:1052300017D068280DD06A2814D104E0742810D043
:105240007A280FD10DE044F400140AE044F48014ED
:1052500001E044F440147278824202D104F58014D3
:10526000761C761C307866280BD013DC582877D053
:1052700009DC002875D04528F6D04628F4D0472808
:105280001AD19DE118E0632835D0642879D06528CB
:1052900012D195E1702873D008DC6728F1D0692815
:1052A0006FD06E280DD06F2806D1B5E073282CD0B2
:1052B000752875D0782874D05A46179990476D1C78
:1052C00075E1C4F30250022809D003280DD0D9F8A3
:1052D000001004280DD00D6009F1040967E1D9F828
:1052E0000010EA17C1E90052F6E7D9F800100D8066
:1052F000F2E70D70F0E719F8041B8DF8001000209C
:105300008DF80100EA46012003E059F804AB4FF0A4
:10531000FF3061074FF0000102D40DE008F10101F8
:105320008846B9420FDA8045F8DB1AF808100029E0
:10533000F4D108E008F1010188468142FADB1AF84D
:1053400008100029F6D105985B46A0EB0807214616
:105350003846179A00F094FA284400EB080507E055
:105360004DE029E10DE01AF8010B5A4617999047D4
:10537000B8F10108F7D25B4621463846179A13E187
:1053800042E00A220092C4F302524FF0000A022ABD
:1053900008D059F804CB032A4FEAEC710AD00DE08B
:1053A00029E02AE009F1070121F00702F2E802C131
:1053B000914609E00FFA8CFC4FEAEC71042A03D104
:1053C0004FFA8CFC4FEAEC71002907DA0A460021FB
:1053D000DCF1000C61EB02012D2202E0220504D574
:1053E0002B228DF80420012203E0E20701D02022C5
:1053F000F7E7904659E00A2102E010220DE0102163
:105400004FF0000A00910BE010224FF0000A44F028
:1054100004040827009203E008224FF0000A0092DB
:10542000C4F30252022A05D059F804CB0021032A02
:1054300008D009E009F1070121F00702F2E802C1F2
:10544000914605E01FFA8CFC042A01D10CF0FF0CF8
:105450004FF00008220728D5702806D0009B83F063
:10546000100353EA0A0305D00EE040228DF8042011
:10547000012208E05CEA010206D030228DF8042007
:105480008DF8050002229046009B83F0080353EA42
:105490000A030AD15CEA010201D1620705D5302274
:1054A0008DF804204FF001087F1E582804D034A046
:1054B00003900EA802900DE036A0F9E7534660462F
:1054C000009AFAF7DDFE84460398825C0298401E3B
:1054D000029002705CEA0100F0D1029806A9081A55
:1054E00000F1200A600702D524F4803400E001278F
:1054F000574502DDA7EB0A0000E0002000EB0A019F
:10550000009005984144401A0590E00306D45B469C
:105510002146179A059800F0B3F90544002706E0E4
:1055200001A85A46C05D179990476D1C7F1C4745DE
:10553000F6DBE0030CD55B462146179A059800F090
:105540009FF9054404E030205A46179990476D1C96
:105550000099481E00900029F5DC08E002980299A5
:105560005A460078491C0291179990476D1CBAF170
:105570000001AAF1010AF1DC65E10000092801003F
:1055800030313233343536373839616263646566B9
:10559000000000003031323334353637383941427B
:1055A000434445460000000000F058F90544761CCD
:1055B000307800287FF4ECAD19B02846BDE8F08FB4
:1055C000620700D4062709F1070222F0070CFCE865
:1055D0000223E14603F000485FEA080C02D00FF214
:1055E000702C0DE05FEA045C02D50FF2682C07E036
:1055F0005FEAC47C02D00FF2602C01E0AFF2700CC5
:105600004FF0FF3823F00043CDF850C065280CD090
:1056100006DC452809D046281DD047283DD13DE06D
:10562000662818D067287ED138E00021112F01DBD1
:10563000112000E0781CCDE9000106A90EA8FFF7B3
:10564000EDFCDDE90F010E9A03910021009207F1B4
:10565000010A04914DE04FF000400097CDE90110A0
:1056600006A90EA8FFF7DAFCDDE90F0203920E9BF4
:1056700011990022DDF80CA00093049211B9791C55
:1056800000EB010AB7EB0A0004D4C0F1FF3007F1C8
:10569000010A0490AAEB0700019044E0012F00DA10
:1056A00001270021112F01DD112000E03846CDE94E
:1056B000000106A90EA8FFF7B1FCDDE90F010E9A63
:1056C0000391002104910092BA4621070CD403995A
:1056D000514500DA8A46BAF1010F05DD009AAAF1B8
:1056E0000101515C302908D0B84202DA10F1040FF0
:1056F00006DA0121CDE9011015E0AAF10101E9E77F
:10570000002805DC049901440491AAEB000102E0A1
:10571000411C514500DD8A460499401A401C019005
:105720004FF000400290200704D40198504501DB5F
:10573000CDF8048000208DF84F0002980DF14F073E
:10574000B0F1004F25D02B200E9002984FF00208A8
:1057500000280CDA404202902D200E9007E00A212A
:105760000298FAF7F5FD3031029007F8011DB8F103
:105770000001A8F10108F2DC02980028EFD1791E9F
:105780000E980870307800F0200040F0450007F8CF
:10579000020D12A8C01B00F107081498007800B190
:1057A000012000EB0A01019801EBE07105984144EA
:1057B000401A401E0590E00306D45B462146179A26
:1057C000059800F05DF805441498007818B15A4621
:1057D000179990476D1CE00324D55B462146179A24
:1057E000059800F04DF805441CE00498002807DBFC
:1057F000DDE90301884203DD0098405C179901E070
:10580000179930205A469047049805F10105401C2D
:1058100004900198401E019004D12E205A461799F9
:1058200090476D1CBAF10001AAF1010ADDDC05E028
:1058300017F8010B5A46179990476D1CB8F10001F3
:10584000A8F10108F4DC5B462146179A0598ABE6FF
:105850002D0000002B000000200000002DE9F04189
:10586000044600251E461746880404D405E0394640
:105870002020B0476D1C641EF9D52846BDE8F08194
:105880002DE9F041044600251E469046C80301D587
:10589000302700E02027880404D505E0414638463B
:1058A000B0476D1C641EF9D52846BDE8F0810000A4
:1058B0007CB50C4D8DF800000446ADF80210019245
:1058C000686A28B100231A46694604F0F9FC10B151
:1058D0006FF001007CBD022040EA0420A880002077
:1058E0007CBD00006000002010B5094C00220221A0
:1058F0002046FBF72CFB0A20FBF712FA01220221BB
:105900002046FBF724FBBDE810400A20FBF708BA4D
:10591000000802403EB52AA10446D1E90001CDE9C4
:105920000101FFF7E1FF0621204606F0CDFA6420D1
:10593000FBF7F6F901236A460021204600F0BAF889
:105940009DF80010082905D01FA0FFF72BFB4FF092
:10595000FF303EBD082301AA0221204600F07CF959
:10596000234D04212846FBF7E5FA014621A0FFF765
:1059700019FB012211462846FBF7E9FA0520FBF73F
:10598000CFF904212846FBF7D5FA014623A0FFF7FB
:1059900009FB06F01FFA38B1204605F0A1FA0146CE
:1059A00029A0FFF7FFFA02E030A0FFF7FBFA9DF80D
:1059B000001038A0FFF7F6FA3D49002008703EBD00
:1059C000120B1412073000105B4144535D20455206
:1059D000524F523A2044657669636520494420302D
:1059E000782530325820213D20307830380D0A009B
:1059F000000802405B4144535D20496E69743A20BF
:105A0000535441525420484947482C204452445949
:105A10002073746174653D25640D0A005B41445335
:105A20005D20496E69743A20616674657220646510
:105A30006C61792C20445244592073746174653D23
:105A400025640D0A000000005B4144535D20496E4F
:105A500069743A2064756D6D7920726561642063A4
:105A60006F64653D256C640D0A0000005B41445382
:105A70005D20496E69743A2064756D6D79205761B7
:105A80006974445244592054494D454F5554210D91
:105A90000A0000005B4144535D20496E6974204F49
:105AA0004B2C2049443D3078253032580D0A0000F7
:105AB000880000202DE9F843804641F020008DF851
:105AC0000000581E154D17468DF801001C46002297
:105AD00010212846FBF73BFA00BF012000BF401C05
